:020000040800F2
:10000000A80D00200101000819190008D1160008E8
:10001000C9180008AD0100080D1F0008000000000D
:100020000000000000000000000000001D19000892
:10003000F3010008000000001B1900081F19000848
:100040001B0100081B0100081B0100081B01000820
:100050001B0100081B0100081B0100081B01000810
:100060001B0100081B0100081B0100081B01000800
:100070001B0100081B010008B1010008BD010008B8
:100080001B0100081B0100081B0100081B010008E0
:100090001B0100081B0100081B0100081B010008D0
:1000A0001B0100081B0100081B0100081B010008C0
:1000B0001B0100081B0100081B0100081B010008B0
:1000C0001B0100081B0100081B0100081B010008A0
:1000D0001B010008A51E00081B0100081B010008E9
:1000E0001B0100081B0100081B010008DFF80CD0F1
:1000F00000F04AF8004800474D1F0008A80D0020F6
:100100000648804706480047FEE7FEE7FEE7FEE7B1
:10011000FEE7FEE7FEE7FEE7FEE7FEE781190008DF
:10012000ED00000840EA01039B0703D009E008C97D
:10013000121F08C0042AFAD203E011F8013B00F8AC
:10014000013B521EF9D27047D2B201E000F8012BF8
:10015000491EFBD270470022F6E710B513460A4647
:1001600004461946FFF7F0FF204610BD30B504469F
:100170000020034600E05B1C934203D2E05CCD5CB0
:10018000401BF8D030BD0000064C074D06E0E0688B
:1001900040F0010394E8070098471034AC42F6D3CE
:1001A000FFF7A8FF0821000828210008FEE700004B
:1001B000014800F091B8000064090020014800F0F7
:1001C0008BB800002009002030B590F84050012481
:1001D000AC40C56B6C60046863604368102B0368B7
:1001E00003D099600068C26030BD9A600068C16049
:1001F00030BD704772B6FEE710B590F821100022AE
:10020000022905D00421816380F82020012010BD3F
:1002100001680B6823F00E030B6001680B6823F084
:1002200001030B6090F84030C46B012101FA03F325
:10023000636080F8211080F82020104610BD000077
:1002400010B590F821100024022903D00421816305
:1002500001243DE001680A6822F00E020A6001688C
:100260000A6822F001020A601A4A0168914201D12B
:10027000012121E0174A1432914201D110211BE0E3
:10028000144A2832914201D1891515E0114A3C32B5
:10029000914201D189140FE00E4A5032914202D1AD
:1002A0004FF4803108E00B4A6432914202D14FF49E
:1002B000801101E04FF08071064A083A5160012137
:1002C00080F82110002180F82010416B01B188478F
:1002D000204610BD080002402DE9F05FC16B0C689C
:1002E00001680B68D0F840C0042202FA0CF2494DB4
:1002F000DFF824A1494E4A4FDFF828B1DFF828E1A2
:1003000022422CD05A072AD50A68920603D40A68DA
:1003100022F004020A600168A94201D1042219E016
:10032000514501D1402215E0B14202D14FF4806223
:1003300010E0B94202D14FF480420BE0594502D19E
:100340004FF4802206E0714502D14FF4800201E0B3
:100350004FF080622F4908394A60C16A3BE04FF094
:10036000020808FA0CF818EA040F4FF000094FF0E1
:10037000010235D05FEA837832D50B689B0605D43D
:100380000B6823F00A030B6080F821200168A94262
:1003900001D1022219E0514501D1202215E0B142DC
:1003A00002D14FF4007210E0B94202D14FF4005272
:1003B0000BE0594502D14FF4003206E0714502D1FD
:1003C0004FF4001201E04FF00072124908394A6000
:1003D00080F82090816A00291AD0BDE8F05F0847B4
:1003E000082505FA0CF5254212D01B0710D50B681D
:1003F00023F00E030B6090F84010C36B02FA01F17A
:100400005960826380F8212080F82090016BE2E738
:10041000BDE8F09F080002401C000240300002408E
:1004200044000240580002406C00024030B528B33E
:1004300008C8134914221944B1FBF2F18900C163C1
:1004400010498163022141771A6843F6F0718A43AB
:10045000D0E900142143D0E902452C43214304692B
:1004600021434469214384692143114319600021D8
:100470004163012242770177084630BD012030BD3B
:10048000F8FFFDBF0000024070B5044690F8200060
:10049000002501280CD0012084F8200094F8216068
:1004A0000020012E06D084F820000225284670BDC9
:1004B000022070BD022684F82160A06320680668CF
:1004C00026F0010606602046FFF77EFEE06A00285F
:1004D0002068016802D041F00E0106E021F004011D
:1004E00001602068016841F00A010160206801682C
:1004F00041F001010160D9E770B5044600F00CF944
:100500000546601C02D004480078044400F004F959
:10051000401BA042FAD370BD300000202DE9F84FF7
:10052000DFF8B891002409F1040A0AF1040B23460C
:100530000F270BF1040EC9E00125A5402A40AA426D
:100540007DD1674ED1F804C0ACEB0608B44532D07B
:1005500014DCBCF1030F3AD009DCBCF1000F2AD047
:10056000BCF1010F1CD0BCF1020F31D11DE0BCF178
:10057000110F17D0BCF1120F2AD119E0B8F5881F5E
:1005800019D006DCB8F5803F15D0B8F5801F1FD113
:1005900011E0B8F5001F0ED0B8F5041F18D10AE01D
:1005A000CB6815E0CB681B1D12E0CB6808330FE069
:1005B000CB680C330CE08B682BB1012B4FF0080398
:1005C00003D0456104E0042302E0056100E000235C
:1005D000FF2A01D8064601E000F104064FEA84052F
:1005E00001D9A5F12005D6F8008007FA05FC28EA14
:1005F0000C0803FA05F548EA0508C6F800804D68BE
:10060000ED0062D5374DAE6946F00106AE61AD69C9
:1006100024F0030605F001050095334D06EB050CAB
:10062000DCF80850A607360F07FA06F825EA080591
:10063000DFF8B880404503D14FF0000817E044E0F0
:10064000DFF8AC80404502D14FF001080FE0DFF841
:10065000A480404502D14FF0020808E0DFF89880FE
:10066000404502D14FF0030801E04FF0040808FABA
:1006700006F848EA0508CCF808804D68D9F800600B
:10068000ED034D4601D5164300E096432E604D68BC
:10069000DAF80060AD03554601D5164300E09643F5
:1006A0002E604D68DBF80060ED025D4601D5164313
:1006B00000E096432E604D68DEF80060AD0275469E
:1006C00001D5164300E096432E60641C0D682A464F
:1006D000E5407FF431AFBDE8F88F00000004014031
:1006E000000011100010024000000140000801400D
:1006F000000C01400010014000140140C26821EAD2
:1007000002030A4043EA0241016170470AB10161F4
:1007100070470904FBE7000001488068704700004B
:100720003000002070B5040025D094F83D0000256D
:1007300020B984F83C50204600F0B8F8242084F812
:100740003D002068016821F0010101602068016816
:1007500041F4004101602068016821F4004101601A
:1007600000F000FA4D4A6168914201D84C4900E01E
:100770004C49884201D2012070BD4B492368B0FB2F
:10078000F1F15E6826F03F060E435E6063689342B7
:1007900006D94FF4967359434FF47A73B1FBF3F1D2
:1007A0002368491C1E6A26F03F06314319626168BE
:1007B000914210D84900401EB0FBF1F2521CC2F326
:1007C0000B02042A01D2042022E0B0FBF1F0401C0D
:1007D000C0F30B001CE0A268F2B301EBC10303EB12
:1007E0000116431EB3FBF6F35B1C43F480431B0569
:1007F00049D092B301EBC10202EB0111401EB0FBE4
:10080000F1F0401CC0F30B0040F4804040F4004085
:100810002168CA694CF6FF739A431043C861D4E952
:10082000071001432068026822F0C00211430160F2
:10083000D4E9030101432068826848F2FF339A43F8
:1008400011438160D4E9050108432168CA6822F098
:10085000FF021043C86001E00EE016E02068016866
:1008600041F0010101602564202084F83D002563EA
:1008700084F83E50002070BD01EB4106431EB3FBDF
:10088000F6F35B1CB3E70120C2E701EB4101401E18
:10089000B0FBF1F0401CC0F30B00B7E7A0860100ED
:1008A00080841E0000093D0040420F0010B586B054
:1008B0000021009101910291039100680F49884243
:1008C0001AD10F4CA06940F00800A061A0696946E8
:1008D00000F008000490C020009012200190032036
:1008E00003900848FFF71AFEE06940F40010E06149
:1008F000E06900F40010049006B010BD0054004000
:1009000000100240000C0140024881680278114446
:100910008160704730000020074810B5016841F041
:1009200010010160032000F075F80F2000F006F8B8
:1009300000F024F8002010BD0020024070B50D4DDD
:1009400004464FF47A712878B1FBF0F00A4909683F
:10095000B1FBF0F000F0ECFA48B9102C07D20022FD
:100960002146501E00F036F800206C6070BD01205A
:1009700070BD0000300000203C0000200C4808B58D
:10098000816941F001018161816901F001010091FA
:10099000C16941F08051C161C06900F08050009090
:1009A0000448416821F0E06141F00071416008BDF8
:1009B0000010024000000140002809DB00F01F0287
:1009C000012191404009800000F1E020C0F80011B1
:1009D00070470000F0B40E4B1B680C46C3F30223B3
:1009E000C3F10705042D00D90425191D072901D2DB
:1009F000002300E0DB1E012606FA05F1491E214016
:100A000099409E40761E16403143F0BC01F07FBAFB
:100A10000CED00E0064900F0070208684FF6FF03FE
:100A2000184040EA0220034A104308607047000063
:100A30000CED00E00000FA052DE9F0470F46050037
:100A400061D0434E306800F00700B84209D23068E8
:100A500020F0070038433060306800F00700B842EB
:100A600051D128683B4C810712D5400703D56068F7
:100A700040F4E06060602878000703D5606840F4C7
:100A8000605060606068A96820F0F0000843606012
:100A90002878C00728D06868012810D0216802286B
:100AA00010D0890700292EDA616821F00301014383
:100AB0006160FFF731FE804641F288390DE0216820
:100AC0008903EFE78901EDE7FFF726FEA0EB0801B8
:100AD000494502D90320BDE8F0876068696800F0E5
:100AE0000C00B0EB810FEFD1306800F00700B84286
:100AF0000BD9306820F0070038433060306800F0D0
:100B00000700B84201D00120E5E72878400705D565
:100B10006068E96820F4E0600843606028780007B6
:100B200006D56068296920F4605040EAC100606021
:100B300000F038F86168084AC1F30311515CC840FD
:100B40000649086006480068FFF7F8FE0020C2E783
:100B50000020024000100240F02000083C0000206D
:100B6000340000200448054900684968044AC1F37C
:100B70000221515CC84070473C0000200010024038
:100B8000002100080448054900684968044AC1F387
:100B9000C221515CC84070473C0000200010024058
:100BA0000021000812A185B00FC98DE80F0014A024
:100BB000144A006804905168134801F00C03042B98
:100BC00010D0082B0ED1C1F38343C9031DF80300D5
:100BD0000AD5516804AAC1F34041515C0A4A504306
:100BE000B0FBF1F005B0704708494843FAE7000050
:100BF00002030405060708090A0B0C0D0E0F10105E
:100C0000010200000010024000127A0000093D00BD
:100C10002DE9F84F040070D02078C04DC00749D0AE
:100C20006868C0F38100012807D06868C0F38100BC
:100C3000022809D16868C00306D52868800339D521
:100C400060680028E7D035E06068B0F5803F0BD0E1
:100C500010B1B0F5A02F11D0286820F480302860A2
:100C6000286820F4802002E0286840F48030286062
:100C7000606890B1FFF750FD06460AE0286840F42E
:100C800080202860F0E700BFFFF746FD801B642846
:100C900073D828688003F7D50CE0FFF73DFD0646C2
:100CA00005E000BFFFF738FD801B6428F0D82868F6
:100CB0008003F7D420789A4E80074FF001094FF057
:100CC000000839D5686810F00C0F07D06868C0F3C9
:100CD0008100022809D16868C00306D4286880070B
:100CE00014D52069012808D110E02069B0B1C6F8F8
:100CF0000090FFF711FD074605E00AE1FFF70CFD44
:100D0000C01B0228C4D828688007F7D52868616905
:100D100020F0F80040EAC10028600DE0C6F800802D
:100D2000FFF7FAFC074604E0FFF7F6FCC01B0228B9
:100D300023D828688007F7D4207800072CD5794875
:100D4000A169D9B1C0F80090FFF7E6FC074604E0BE
:100D5000FFF7E2FCC01B02280FD8686A8007F7D5AE
:100D600071484FF4FA510068B0FBF1F0009000BFF9
:100D70000098411E0091FAD20EE080E0C0F8008099
:100D8000FFF7CAFC074604E0FFF7C6FCC01B0228B9
:100D900075D8686A8007F7D42078400760D5E8697D
:100DA0000027C00008D4E86940F08050E861E86995
:100DB000012700F0805000905C480168C90513D4F9
:100DC0000168834641F480710160FFF7A5FC82460B
:100DD00006E000BFFFF7A0FCA0EB0A0064284ED895
:100DE000DBF80000C005F5D5E06801280AD008B19D
:100DF000052813D0286A20F001002862286A20F014
:100E0000040002E0286A40F001002862E06841F234
:100E1000883B98B1FFF780FC82460BE0286A40F0DF
:100E200004002862EEE700BFFFF776FCA0EB0A01A2
:100E300059455AD8286A8007F6D50CE0FFF76CFCB4
:100E4000824605E0FFF768FCA0EB0A0159454CD843
:100E5000286A8007F6D41FB1E86920F08050E86165
:100E6000E06988B36968C1F38101022944D002288E
:100E7000C6F8608004D0FFF74FFC044638E034E049
:100E8000FFF74AFC074604E0FFF746FCC01B0228B8
:100E90002BD828688001F7D4206AB0F5803F05D1AF
:100EA0006868A16820F4003008436860D4E908014C
:100EB0000843696821F4741108436860C6F86090BB
:100EC000FFF72AFC044606E025E000BFFFF724FCFC
:100ED000001B022809D828688001F7D51BE000BF55
:100EE000FFF71AFC001B022802D90320BDE8F88F87
:100EF00028688001F4D40EE00128F7D06868226ADF
:100F000000F48031914204D1616A00F4701088428B
:100F100001D00120EAE70020E8E7000000100240CD
:100F200000004242800442423C0000200070004029
:100F300010B5401EB0F1807F01D3012010BD4FF0ED
:100F4000E02460610F21601700F0E1FF0020A06144
:100F500007202061002010BD10B590F83C20012A28
:100F600022D0012280F83C20CA688C6822F44072AA
:100F700022434C6822F4806222430C6822F400620F
:100F800022430C6922F4805222434C6922F400521D
:100F90002243C969002322F480420A4301684A645B
:100FA00080F83C30002010BD022010BD70B590F8D4
:100FB0003C20012A26D0012480F83C40022280F8FF
:100FC0003D2003685A689D6822F070060A68324323
:100FD0005A600D4B02689A4208D0B2F1804F05D09A
:100FE0000A4B9A4202D00A4B9A4204D1496825F032
:100FF00080031943916080F83D40002180F83C1047
:10100000084670BD022070BD002C01400004004065
:101010000008004000B585B00021009101910291C7
:10102000039100680B49884212D10B48816941F055
:10103000040181618069694600F0040004904FF466
:10104000807000900220019003900448FFF766FA38
:1010500005B000BD002C0140001002400008014016
:1010600070B5044690F83C000D4601280AD00120D6
:1010700084F83C0042B1042A18D0082A2AD00C2A4D
:101080004DD139E0022070BD206800F0BFFC20681F
:10109000816941F0080181612068816921F00401C2
:1010A0008161206881692A69114311E0206800F09C
:1010B000D5FC2068816941F4006181612068816903
:1010C00021F480618161206881692A6941EA0221F5
:1010D000816124E0206800F0EDFC2068C16941F0E6
:1010E0000801C1612068C16921F00401C161206863
:1010F000C1692A69114311E0206800F007FD2068EA
:10110000C16941F40061C1612068C16921F4806155
:10111000C1612068C1692A6941EA0221C1610020D8
:1011200084F83C0070BD10B5040003D094F83D0075
:1011300010B107E0012010BD002084F83C002046DB
:1011400000F01EF8022084F83D00211D206800F008
:1011500019FC012084F8460084F83E0084F83F0022
:1011600084F8400084F8410084F8420084F8430089
:1011700084F8440084F8450084F83D00002010BD48
:1011800008B500680649884208D10648816941F4DB
:1011900000618161806900F40060009008BD00007A
:1011A000002C01400010024010B50446022249B153
:1011B00004290ED0082913D094F84100012816D034
:1011C000012010BD94F83E000128F9D184F83E209A
:1011D0000FE094F83F000128F2D184F83F2008E0A6
:1011E00094F840000128EBD184F8402001E084F815
:1011F00041200122206800F0FBFB0F492068884253
:1012000003D1426C42F4004242642068884208D014
:10121000B0F1804F05D00949884202D00849884280
:1012200004D1816801F00701062903D0016841F06B
:1012300001010160002010BD002C014000040040AD
:1012400000080040704710B504460068416994F8F2
:101250003D20C1F3C011212A0BD151B1416921F0C8
:1012600080014161606B08B1FEF7C6FF204600F0C7
:10127000EEFC2068416994F83E20C1F38011222AD7
:101280000BD151B1416921F040014161A06B08B11E
:10129000FEF7B2FF204600F0C2FC002010BD7047F0
:1012A000F8B5026804461068D168536910F00F0F52
:1012B0004FF0000554D003F0010601F49077374356
:1012C0005FD0C20705D0CA0503D5226C42F00102E7
:1012D0002264420705D5DA0703D0226C42F00202ED
:1012E0002264820705D5DA0703D0226C42F004029B
:1012F0002264020707D501F02002324303D0226C9A
:1013000042F008022264226C002A35D0800604D5FF
:10131000880602D5204600F0A3FC20684069216CB5
:10132000C0F3801001F008010143204625D000F0F1
:1013300076FC2068416949061BD5416921F04001CE
:101340004161A06BA8B158494163A06BFEF778FFDB
:10135000002811D0A06B416B01B0BDE8F0400847F8
:1013600083060ED58B060CD52046BDE8F84000F06C
:1013700077BC2046FFF793FFF8BDFFF790FF256489
:10138000F8BD266B2023012E52D1C60650D5CE06BD
:101390004ED5106850680090506940062AD5A16B60
:1013A000086840680004000CEAD0A68D8642E7D9A0
:1013B000E0858869202818D0D06820F48070D0603B
:1013C0002068416921F0010141612068416921F0F3
:1013D0004001416184F83E3025632068C16821F0F6
:1013E0001001C160A06BFEF707FFA08DE18D401AD0
:1013F00081B219E0A08DE18D401A81B2E08D002804
:10140000BED00029BCD0D06820F49070D060206895
:10141000426922F00102426184F83E30256320686F
:10142000C26822F01002C2602046FFF70BFFF8BD31
:1014300005062BD50D0629D594F83D002128F6D1B7
:10144000A068B0F5805F01D12069B0B1206A411C6D
:101450002162216800784860E08C401E0004000C86
:10146000E084E4D12068C16821F08001C160206877
:10147000C16841F04001C160F8BD206A0088C0F336
:1014800008005060206A801C2062E5E74006F3D522
:101490004806F1D5D168204621F04001D16084F89A
:1014A0003D3000F014F9F8BD511B000870B5040080
:1014B00004D094F83D00002510B106E0012070BD75
:1014C00084F83C50204600F023F8242084F83D00A6
:1014D0002068C16821F40051C160204600F01CFC66
:1014E0002068016921F4904101612068416921F07F
:1014F0002A0141612068C16841F40051C16025643E
:10150000202084F83D0084F83E00002070BD0000DB
:10151000F0B585B00024064600940194029403942B
:1015200000682D49884254D12C48816941F480419A
:101530008161816901F480410491816941F0040174
:1015400081618069264D00F0040004904FF4007022
:101550000090022001900320039069462846FEF780
:10156000DDFF2815CDE90004694628460294FEF700
:10157000D5FF1D4D1B488027C5E90004C5E902477A
:101580002C616C61AC612846EC61FEF74FFF08B13D
:10159000FEF730FEB5636E62134D124844351438C1
:1015A00001C5102091C5104845F8104944306C61C0
:1015B000AC61EC61FEF73AFF08B1FEF71BFE756304
:1015C0000022114625206E62FFF704FA2520FFF75E
:1015D000F3F905B0F0BD00000038014000100240F2
:1015E00000080140580002402009002090F83E30D9
:1015F000202B0ED159B152B190F83C30012B08D0BC
:10160000012380F83C300023036300F0E1BB01209C
:101610007047022070477047704700002DE9F8437B
:10162000044690F83D001F4616460D4620284CD132
:10163000C5B1BEB194F83C00012846D0012084F821
:101640003C004FF00008C4F84080212084F83D00A1
:10165000FFF762F8A6848146E684A068B0F5805F53
:1016600003D004E00120BDE8F883206928B12E46AC
:101670005FF0000584F83C800EE00026FAE7802148
:10168000204600F0DDFBA0B9AEB116F8010B2168D1
:101690004860E08C401EE084E08C4B464FF0000236
:1016A00000970028EBD14FF04001204600F0C8FB26
:1016B00030B10320D7E735F8020BC0F30800E6E7A6
:1016C000202084F83D000020CDE70220CBE77047C2
:1016D000FEE700000D4808B5416941F00101416194
:1016E0004069002200F00100009011460E20FFF733
:1016F00071F90E20FFF760F9002211460F20FFF765
:1017000069F9BDE808400F20FFF756B90010024004
:101710002DE9F04385B00024204800940194029400
:101720000394816941F020018161816901F0200108
:101730000491816941F008018161816901F008012A
:101740000491816941F0040181618069DFF8508072
:1017500000F004000490002202214046FEF7D6FF6C
:10176000DFF840904FF48057002239464846FEF794
:10177000CDFF02250126CDE9005669464046CDE958
:101780000245FEF7CBFECDE9007669464846CDE935
:101790000245FEF7C3FE05B0BDE8F083001002402D
:1017A000000C0140000801400D4810B50B490160D4
:1017B0000C49416000214FF480428160C0E903126E
:1017C00041618161C1610162FEF7ACFF002803D075
:1017D000BDE81040FEF70EBD10BD000000540040F3
:1017E00040000020A086010010B592B000240F94A4
:1017F0001C2108A81094FEF7AEFC20216846FEF7D5
:10180000AAFC20481E4901604721C0E9011444F6A2
:101810001F61C0E9031444618461FFF784FC08B1CF
:10182000FEF7E8FC0F940FA916481094FFF7BEFBD3
:1018300008B1FEF7DFFC6020CDE908040A940B94A0
:101840000C940D94002208A90E480E94FFF708FC92
:1018500008B1FEF7CFFC00944FF40050CDE90440EE
:10186000029401940394694606480794FFF774FBB9
:1018700008B1FEF7BFFC0348FFF7CCFB12B010BD68
:10188000002C01409400002010B50E4C0C480C2197
:1018900020604FF4E13060600020A060E060C4E9A7
:1018A0000401A061E0612046FFF700FE08B1FEF7E9
:1018B000A1FC2068C16841F01001C16010BD0000AA
:1018C00000380140DC080020FEE70000F0B5114AB6
:1018D0004FF6FF7300255380157015E0035D5688A1
:1018E0007340538055704AF201065388DF074FEA70
:1018F000530300D07340538053785B1CDBB25370AA
:10190000082BF2D3641C147014788C42E6DB5088E8
:10191000F0BD000000000020FEE770477047FEF7B2
:10192000F3BF30B58FB028216846FEF714FC1421B0
:101930000AA8FEF710FC01210804CDE900100024DC
:10194000029402250491CDE907504FF4E01009906C
:101950006846FFF75DF908B172B6FEE70F20CDE9E2
:101960000A054FF48060CDE90C4002210AA80E94CC
:10197000FFF762F8002801D072B6FEE70FB030BD65
:1019800070470000F0B50268164B174C174D4FF02A
:101990008047984205D0B84203D0A04201D0A84267
:1019A00003D122F070064A683243984205D0B8420B
:1019B00003D0A04201D0A84203D122F44074CA68E7
:1019C00022434C6922F08002224302608A68C2628C
:1019D0000A688262984201D109690163012141616B
:1019E000F0BD0000002C0140000400400008004051
:1019F00010B501F01F030121046A99408C43046271
:101A0000016A9A401143016210BD000030B5026ABC
:101A100022F001020262026A4368846924F07305BD
:101A20000C682C4322F002058A682A430A4DA8421A
:101A30000BD122F00805CA6823F440732A434D698C
:101A400022F004021D438B692B4343608461496883
:101A50004163026230BD0000002C014030B5026AD3
:101A600022F010020262026A436884690D6824F45D
:101A7000E64444EA05248D6822F0200242EA051279
:101A80000B4DA8420ED1CD6822F0800242EA051229
:101A90004D6923F4406343EA85038D6922F04002D7
:101AA00043EA85034360846149688163026230BD13
:101AB000002C014030B5026A22F480720262036A8F
:101AC0004268C46923F4007324F073050C682C4346
:101AD0008D6843EA05230C4DA8420ED1CD6823F44E
:101AE000006343EA05234D6922F4405242EA05129D
:101AF0008D6923F4806342EA05124260C46149683B
:101B0000C163036230BD0000002C014030B5026AA1
:101B100022F480520262046A4268C3690D6823F4A9
:101B2000E64343EA05238D6824F4005444EA05346F
:101B3000064DA84204D14D6922F4804242EA851242
:101B40004260C36149680164046230BD002C0140F9
:101B500010B5406A0021C185C184FFF7A0FB10BD0C
:101B600070B5446A2068406994F83D10C0F3C01015
:101B70000025212904D118B1E584204600F067F83A
:101B80002068406994F83E10C0F38010222904D1E7
:101B900018B1E585204600F042F8206C40F01000B6
:101BA00020642046FFF77BFB70BD10B50146406AFC
:101BB0000968096889061BD40021C1850168CA68C3
:101BC00022F48072CA6001684A6922F001024A6107
:101BD00001684A6922F040024A61202180F83E10E3
:101BE000016B012904D10168CA6822F01002CA60A1
:101BF000016B012902D0FFF70EFD10BD818DFFF7AB
:101C000021FB10BD10B5406A016B012902D0FFF71E
:101C100003FD10BD818D4908FFF714FB10BD01685D
:101C2000CA6822F49072CA6001684A6922F001020F
:101C30004A61016B012904D10168CA6822F01002CF
:101C4000CA60202180F83E100021016370470168BE
:101C5000CA6822F0C002CA60202180F83D10704797
:101C600008B590F83E10222901D0022008BD8268F4
:101C70004FF480539A4201D1016921B1816A9A429D
:101C80001BD04AB10AE00268816A5268C2F30802B6
:101C90000A80816A891C08E0026972B10268526890
:101CA00002F07F020A70816A491C8162C18D491E5F
:101CB0000904090CC18503D019E002685268F1E7F4
:101CC0000168CA6822F02002CA600168CA6822F46A
:101CD0008072CA6001684A6922F001024A612021CB
:101CE00080F83E10016B012903D0FFF794FC00201F
:101CF00008BD002101630168CA6822F01002CA60B1
:101D000001680A68D20602D50A6849680091818D87
:101D1000FFF798FAEBE7000070B504460068016928
:101D2000E26821F44051114301612169A068084330
:101D3000616908432168CA6841F20C639A4302430F
:101D4000CA6020684169A26921F440711143416170
:101D50001E492068884202D1FEF714FF01E0FEF719
:101D600001FF00EBC00101EB0012606864218000FC
:101D7000B2FBF0F3B3FBF1F36FF018067343B2FB61
:101D8000F0F5B2FBF0F605EB8305322303EB051506
:101D9000B5FBF1F5B6FBF1F605F0F00505EB061520
:101DA000B2FBF0F6B2FBF0F0B0FBF1F06FF018020E
:101DB000504306EB800003EB0010B0FBF1F021680C
:101DC00000F00F002844886070BD0000003801401A
:101DD00038B58162828500251346044605642220B9
:101DE00084F83E00A26B13489062A26B1248D06246
:101DF000A26B12481063A06B0A4645632168A06B72
:101E0000091DFEF741FB206801684168009184F8D4
:101E10003C50C16841F48071C1602068416941F063
:101E2000010141612068416941F0400141610020A8
:101E300038BD0000AB1B0008051C0008611B000832
:101E40002DE9F041984617460E460446069D1DE0D2
:101E5000681C1BD02DB1FEF75FFCA0EB0800A84268
:101E600014D92068C16821F4D071C160206841692B
:101E700021F001014161202084F83D0084F83E00FA
:101E8000002084F83C000320BDE8F0812068006851
:101E900036EA000004D00020B842D9D00020F3E791
:101EA0000120F9E738B5144800680168C943C9063C
:101EB0001DD401680025406800900F48FFF7C3F962
:101EC0000E48006840680E4CC0F5806082B22280E7
:101ED0000C490D48FEF726F921880A48FEF73BF920
:101EE00025804FF4806207490348FFF77FFBBDE878
:101EF00038400148FFF7D4B9DC0800202009002051
:101F00002E000020DC000020DC040020FEE7090792
:101F1000090E002804DB00F1E02080F8001470476F
:101F200000F00F0000F1E02080F8141D704702E07F
:101F300008C8121F08C1002AFAD170477047002054
:101F400001E001C1121F002AFBD17047FEF7E4FC3B
:101F5000FFF7E7FCFFF7DCFBFFF726FCFFF7BAFB18
:101F6000FFF792FCFFF740FC4FF4806B5A465A494A
:101F70005A48FFF73BFB00215948FFF715F9584D28
:101F80004FF42F76286846634FF47A742046FEF7A4
:101F9000B3FA29684FF41668C1F834802046FEF77A
:101FA000ABFADFF84091504C4FF0000A4FF48051EB
:101FB0004E48FEF7A3FB3220FEF79EFA4A4906225E
:101FC00016314848FEF7D2F878B1474908221E3149
:101FD0004448FEF7CBF8A0B34349082226314148D4
:101FE000FEF7C4F8002863D051E006213D48FFF712
:101FF0006DFCA08099F80720C3B29A4222D199F8CB
:102000000610B1EB102F1DD1A4F804A02868466378
:102010004FF4FA70FEF770FA28684746C0F834802B
:102020004FF4FA70FEF768FA286846634FF4FA70C6
:10203000FEF762FA286847634FF4FA70FEF75CFA1D
:1020400019E005E0284906224FF6FF73103117E02A
:1020500006212448FFF73AFCA08099F80720C3B274
:102060009A42EFD199F80610B1EB102FEAD1A4F8FB
:1020700004A001202EE01C4903224FF6FF73891DA6
:102080001648FFF7CBFA59461648FEF764F8E068A1
:1020900001288BD1286846634FF4FA673846FEF76B
:1020A0002BFA2968C1F834803846FEF725FA7DE717
:1020B00006210C48FFF70AFCA08099F80720C3B25C
:1020C0009A42BFD199F80610B1EB102FBAD1504601
:1020D000A4F804A0E060CEE7DC000020DC080020CB
:1020E00094000020DC0400200000002000080140D3
:1020F00000000000000000000102030406070809B8
:102100000000000001020304282100080000002054
:10211000400000002E1F0008682100084000002039
:10212000680D00003E1F00080000FFFF0000025283
:1021300049000000000000000243524345520201E2
:1021400000000000393C0202000000003978020360
:1021500000000000F9450000010000001000000030
:08216000000000000024F4005F
:04000005080000ED02
:00000001FF
